{
  "transactions": [
    {
      "hash": null,
      "transactionType": "CALL",
      "contractName": null,
      "contractAddress": "0x3b7c0e49c607d47f4711d8573312ea5b6480566d",
      "function": "depositRouter(((uint8,uint256,bytes32,uint256)[],bytes32,(uint8,bytes32)[],bytes32,bytes32,uint256,uint256,uint128,uint128),bytes,uint256,uint8,bytes)",
      "arguments": [
        "([(0, 8453, 0x0000000000000000000000000000000000000000000000000000000000000000, 100000000000)], 0x0000000000000000000000003273656fe82e6eb179b0b24da4a8f7684c0b8165, [(0, 0x0000000000000000000000003273656fe82e6eb179b0b24da4a8f7684c0b8165)], 0x84e75c8576483b53128ed23c26158522388ddb0a5df8516c83887d522196f91f, 0x0000000000000000000000003273656fe82e6eb179b0b24da4a8f7684c0b8165, 1, 100000000000, 1768852619, 1768856219)",
        "0xd8b06f1e0fad6e399c69c02156333a987b8f044eefb095f619235a12c6746c15467de4723cdcebef570a7fb2c8f7fa147990884a6db4872406f2bc9ce16334b21b",
        "0",
        "1",
        "0x"
      ],
      "transaction": {
        "from": "0x3273656fe82e6eb179b0b24da4a8f7684c0b8165",
        "to": "0x3b7c0e49c607d47f4711d8573312ea5b6480566d",
        "value": "0x174876e800",
        "input": "0xfbc3180b00000000000000000000000000000000000000000000000000000000000000a000000000000000000000000000000000000000000000000000000000000002c000000000000000000000000000000000000000000000000000000000000000000000000000000000000000000000000000000000000000000000000000000001000000000000000000000000000000000000000000000000000000000000034000000000000000000000000000000000000000000000000000000000000001200000000000000000000000003273656fe82e6eb179b0b24da4a8f7684c0b816500000000000000000000000000000000000000000000000000000000000001c084e75c8576483b53128ed23c26158522388ddb0a5df8516c83887d522196f91f0000000000000000000000003273656fe82e6eb179b0b24da4a8f7684c0b81650000000000000000000000000000000000000000000000000000000000000001000000000000000000000000000000000000000000000000000000174876e80000000000000000000000000000000000000000000000000000000000696e8c8b00000000000000000000000000000000000000000000000000000000696e9a9b0000000000000000000000000000000000000000000000000000000000000001000000000000000000000000000000000000000000000000000000000000000000000000000000000000000000000000000000000000000000000000000021050000000000000000000000000000000000000000000000000000000000000000000000000000000000000000000000000000000000000000000000174876e800000000000000000000000000000000000000000000000000000000000000000100000000000000000000000000000000000000000000000000000000000000000000000000000000000000003273656fe82e6eb179b0b24da4a8f7684c0b81650000000000000000000000000000000000000000000000000000000000000041d8b06f1e0fad6e399c69c02156333a987b8f044eefb095f619235a12c6746c15467de4723cdcebef570a7fb2c8f7fa147990884a6db4872406f2bc9ce16334b21b000000000000000000000000000000000000000000000000000000000000000000000000000000000000000000000000000000000000000000000000000000",
        "nonce": "0x19",
        "chainId": "0x2105"
      },
      "additionalContracts": [],
      "isFixedGasLimit": false
    }
  ],
  "receipts": [],
  "libraries": [],
  "pending": [],
  "returns": {},
  "timestamp": 1768852640228,
  "chain": 8453,
  "commit": "33743b4"
}