{
  "transactions": [
    {
      "hash": null,
      "transactionType": "CALL",
      "contractName": null,
      "contractAddress": "0x3b7c0e49c607d47f4711d8573312ea5b6480566d",
      "function": "depositRouter(((uint8,uint256,bytes32,uint256)[],bytes32,(uint8,bytes32)[],bytes32,bytes32,uint256,uint256,uint128,uint128),bytes,uint256,uint8,bytes)",
      "arguments": [
        "([(0, 8453, 0x0000000000000000000000000000000000000000000000000000000000000000, 100000000000)], 0x0000000000000000000000003273656fe82e6eb179b0b24da4a8f7684c0b8165, [(0, 0x0000000000000000000000003273656fe82e6eb179b0b24da4a8f7684c0b8165)], 0x84e75c8576483b53128ed23c26158522388ddb0a5df8516c83887d522196f91f, 0x0000000000000000000000003273656fe82e6eb179b0b24da4a8f7684c0b8165, 1, 100000000000, 1768852757, 1768856357)",
        "0x58b0a3e3047b66db2c311c5c2a4d3b34c47f56d841b44c070ea0cd1a430464f1565000f5dcd08b1d7bc0530dfefeeab51ddbc161d5a27d5b4b57fcd7150b0b931b",
        "0",
        "1",
        "0x"
      ],
      "transaction": {
        "from": "0x3273656fe82e6eb179b0b24da4a8f7684c0b8165",
        "to": "0x3b7c0e49c607d47f4711d8573312ea5b6480566d",
        "value": "0x174876e800",
        "input": "0xfbc3180b00000000000000000000000000000000000000000000000000000000000000a000000000000000000000000000000000000000000000000000000000000002c000000000000000000000000000000000000000000000000000000000000000000000000000000000000000000000000000000000000000000000000000000001000000000000000000000000000000000000000000000000000000000000034000000000000000000000000000000000000000000000000000000000000001200000000000000000000000003273656fe82e6eb179b0b24da4a8f7684c0b816500000000000000000000000000000000000000000000000000000000000001c084e75c8576483b53128ed23c26158522388ddb0a5df8516c83887d522196f91f0000000000000000000000003273656fe82e6eb179b0b24da4a8f7684c0b81650000000000000000000000000000000000000000000000000000000000000001000000000000000000000000000000000000000000000000000000174876e80000000000000000000000000000000000000000000000000000000000696e8d1500000000000000000000000000000000000000000000000000000000696e9b250000000000000000000000000000000000000000000000000000000000000001000000000000000000000000000000000000000000000000000000000000000000000000000000000000000000000000000000000000000000000000000021050000000000000000000000000000000000000000000000000000000000000000000000000000000000000000000000000000000000000000000000174876e800000000000000000000000000000000000000000000000000000000000000000100000000000000000000000000000000000000000000000000000000000000000000000000000000000000003273656fe82e6eb179b0b24da4a8f7684c0b8165000000000000000000000000000000000000000000000000000000000000004158b0a3e3047b66db2c311c5c2a4d3b34c47f56d841b44c070ea0cd1a430464f1565000f5dcd08b1d7bc0530dfefeeab51ddbc161d5a27d5b4b57fcd7150b0b931b000000000000000000000000000000000000000000000000000000000000000000000000000000000000000000000000000000000000000000000000000000",
        "nonce": "0x19",
        "chainId": "0x2105"
      },
      "additionalContracts": [],
      "isFixedGasLimit": false
    }
  ],
  "receipts": [],
  "libraries": [],
  "pending": [],
  "returns": {},
  "timestamp": 1768852776922,
  "chain": 8453,
  "commit": "33743b4"
}