{
  "transactions": [
    {
      "hash": null,
      "transactionType": "CALL",
      "contractName": null,
      "contractAddress": "0x3b7c0e49c607d47f4711d8573312ea5b6480566d",
      "function": "depositRouter(((uint8,uint256,bytes32,uint256)[],bytes32,(uint8,bytes32)[],bytes32,bytes32,uint256,uint256,uint128,uint128),bytes,uint256,uint8,bytes)",
      "arguments": [
        "([(0, 8453, 0x0000000000000000000000000000000000000000000000000000000000000000, 100000000000)], 0x0000000000000000000000003273656fe82e6eb179b0b24da4a8f7684c0b8165, [(0, 0x0000000000000000000000003273656fe82e6eb179b0b24da4a8f7684c0b8165)], 0x6569703135350000000000000000000000000000000000000000000000000000, 0x0000000000000000000000003273656fe82e6eb179b0b24da4a8f7684c0b8165, 1, 100000000000, 1768851061, 1768854661)",
        "0xf0f17a2f7995ae4558357bf6e10a2d514d80d0c971879340f4083f94bd973abf56cb2bdeb701ee233ff6ddfc178e56e3856f83044e63e9aa1183ef3623ecfa3a1c",
        "0",
        "1",
        "0x"
      ],
      "transaction": {
        "from": "0x3273656fe82e6eb179b0b24da4a8f7684c0b8165",
        "to": "0x3b7c0e49c607d47f4711d8573312ea5b6480566d",
        "value": "0x174876e800",
        "input": "0xfbc3180b00000000000000000000000000000000000000000000000000000000000000a000000000000000000000000000000000000000000000000000000000000002c000000000000000000000000000000000000000000000000000000000000000000000000000000000000000000000000000000000000000000000000000000001000000000000000000000000000000000000000000000000000000000000034000000000000000000000000000000000000000000000000000000000000001200000000000000000000000003273656fe82e6eb179b0b24da4a8f7684c0b816500000000000000000000000000000000000000000000000000000000000001c065697031353500000000000000000000000000000000000000000000000000000000000000000000000000003273656fe82e6eb179b0b24da4a8f7684c0b81650000000000000000000000000000000000000000000000000000000000000001000000000000000000000000000000000000000000000000000000174876e80000000000000000000000000000000000000000000000000000000000696e867500000000000000000000000000000000000000000000000000000000696e94850000000000000000000000000000000000000000000000000000000000000001000000000000000000000000000000000000000000000000000000000000000000000000000000000000000000000000000000000000000000000000000021050000000000000000000000000000000000000000000000000000000000000000000000000000000000000000000000000000000000000000000000174876e800000000000000000000000000000000000000000000000000000000000000000100000000000000000000000000000000000000000000000000000000000000000000000000000000000000003273656fe82e6eb179b0b24da4a8f7684c0b81650000000000000000000000000000000000000000000000000000000000000041f0f17a2f7995ae4558357bf6e10a2d514d80d0c971879340f4083f94bd973abf56cb2bdeb701ee233ff6ddfc178e56e3856f83044e63e9aa1183ef3623ecfa3a1c000000000000000000000000000000000000000000000000000000000000000000000000000000000000000000000000000000000000000000000000000000",
        "nonce": "0x19",
        "chainId": "0x2105"
      },
      "additionalContracts": [],
      "isFixedGasLimit": false
    }
  ],
  "receipts": [],
  "libraries": [],
  "pending": [],
  "returns": {},
  "timestamp": 1768851080108,
  "chain": 8453,
  "commit": "33743b4"
}