{
  "transactions": [
    {
      "hash": "0xa15f4b4cd5e81bcc0b10feb7474708b5f184bb244b10a4112a66a4a6efcfe599",
      "transactionType": "CALL",
      "contractName": null,
      "contractAddress": "0x3b7c0e49c607d47f4711d8573312ea5b6480566d",
      "function": "depositRouter(((uint8,uint256,bytes32,uint256)[],bytes32,(uint8,bytes32)[],bytes32,bytes32,uint256,uint256,uint128,uint128),bytes,uint256,uint8,bytes)",
      "arguments": [
        "([(0, 8453, 0x0000000000000000000000000000000000000000000000000000000000000000, 1000000000000)], 0x0000000000000000000000003273656fe82e6eb179b0b24da4a8f7684c0b8165, [(0, 0x0000000000000000000000003273656fe82e6eb179b0b24da4a8f7684c0b8165)], 0x84e75c8576483b53128ed23c26158522388ddb0a5df8516c83887d522196f91f, 0x0000000000000000000000000000000000000000000000000000000000000000, 1, 900000000000, 1768853743, 1768857343)",
        "0x1d426304fd7fe4be46a7f3a5f8dace9401bdd845ecc498af06a379203a19e7e4038af5f366ff1583e783163f3d8a597ca2c9d3d333f64a2c5e75a6ae9ff54c251b",
        "0",
        "1",
        "0x00000000000000000000000000000000000000000000000000000000000000000000000000000000000000000000000000000000000000000000000000000000"
      ],
      "transaction": {
        "from": "0x3273656fe82e6eb179b0b24da4a8f7684c0b8165",
        "to": "0x3b7c0e49c607d47f4711d8573312ea5b6480566d",
        "value": "0xe8d4a51000",
        "input": "0xfbc3180b00000000000000000000000000000000000000000000000000000000000000a000000000000000000000000000000000000000000000000000000000000002c000000000000000000000000000000000000000000000000000000000000000000000000000000000000000000000000000000000000000000000000000000001000000000000000000000000000000000000000000000000000000000000034000000000000000000000000000000000000000000000000000000000000001200000000000000000000000003273656fe82e6eb179b0b24da4a8f7684c0b816500000000000000000000000000000000000000000000000000000000000001c084e75c8576483b53128ed23c26158522388ddb0a5df8516c83887d522196f91f00000000000000000000000000000000000000000000000000000000000000000000000000000000000000000000000000000000000000000000000000000001000000000000000000000000000000000000000000000000000000d18c2e280000000000000000000000000000000000000000000000000000000000696e90ef00000000000000000000000000000000000000000000000000000000696e9eff0000000000000000000000000000000000000000000000000000000000000001000000000000000000000000000000000000000000000000000000000000000000000000000000000000000000000000000000000000000000000000000021050000000000000000000000000000000000000000000000000000000000000000000000000000000000000000000000000000000000000000000000e8d4a51000000000000000000000000000000000000000000000000000000000000000000100000000000000000000000000000000000000000000000000000000000000000000000000000000000000003273656fe82e6eb179b0b24da4a8f7684c0b816500000000000000000000000000000000000000000000000000000000000000411d426304fd7fe4be46a7f3a5f8dace9401bdd845ecc498af06a379203a19e7e4038af5f366ff1583e783163f3d8a597ca2c9d3d333f64a2c5e75a6ae9ff54c251b00000000000000000000000000000000000000000000000000000000000000000000000000000000000000000000000000000000000000000000000000004000000000000000000000000000000000000000000000000000000000000000000000000000000000000000000000000000000000000000000000000000000000",
        "nonce": "0x19",
        "chainId": "0x2105"
      },
      "additionalContracts": [],
      "isFixedGasLimit": false
    }
  ],
  "receipts": [
    {
      "status": "0x1",
      "cumulativeGasUsed": "0xee5811",
      "logs": [
        {
          "address": "0x5aeb35b4d43e2632d37246bed23562743d09a87c",
          "topics": [
            "0x861b7e5934820cd74f4245d936687b94e982c2fb38fafa2b70f128b16b5fdc3b",
            "0x4e3c958514ea58a92ef03b6196799196a0d05f381dc875c4722987c8d59be576"
          ],
          "data": "0x",
          "blockHash": "0x70e3c9e295bbec9ab7706302a261216b51cbf317e810c19717ff89e63896afb8",
          "blockNumber": "0x2721a14",
          "blockTimestamp": "0x696e910b",
          "transactionHash": "0xa15f4b4cd5e81bcc0b10feb7474708b5f184bb244b10a4112a66a4a6efcfe599",
          "transactionIndex": "0x34",
          "logIndex": "0x1e1",
          "removed": false
        },
        {
          "address": "0xda95d2e1b54893d424da8959bcabeabbfc911884",
          "topics": [
            "0xe188a18138f4f3ddbaea4a8e8b9a7241e53aecf8f1c9cb7200371a199a7267e6"
          ],
          "data": "0x0000000000000000000000000000000000000000000000000000000000000000",
          "blockHash": "0x70e3c9e295bbec9ab7706302a261216b51cbf317e810c19717ff89e63896afb8",
          "blockNumber": "0x2721a14",
          "blockTimestamp": "0x696e910b",
          "transactionHash": "0xa15f4b4cd5e81bcc0b10feb7474708b5f184bb244b10a4112a66a4a6efcfe599",
          "transactionIndex": "0x34",
          "logIndex": "0x1e2",
          "removed": false
        },
        {
          "address": "0xc05fb021704d4709c8c058da691fdf4070574685",
          "topics": [
            "0x918554b6bd6e2895ce6553de5de0e1a69db5289aa0e4fe193a0dcd1f14347477"
          ],
          "data": "0x6c26b1702ebb505ae4593de04d839353b0cd2ef66144157584967b550363eea9",
          "blockHash": "0x70e3c9e295bbec9ab7706302a261216b51cbf317e810c19717ff89e63896afb8",
          "blockNumber": "0x2721a14",
          "blockTimestamp": "0x696e910b",
          "transactionHash": "0xa15f4b4cd5e81bcc0b10feb7474708b5f184bb244b10a4112a66a4a6efcfe599",
          "transactionIndex": "0x34",
          "logIndex": "0x1e3",
          "removed": false
        },
        {
          "address": "0x337685fdab40d39bd02028545a4ffa7d287cc3e2",
          "topics": [
            "0xb8543d214cab9591941648db8d40126a163bfd0db4a865678320b921e1398043"
          ],
          "data": "0x000000000000000000000000c05fb021704d4709c8c058da691fdf407057468500000000000000000000000000000000000000000000000000000000000000400000000000000000000000000000000000000000000000000000000000000204ca5662b000000000000000000000000000000000000000000000000000000000000000000000000000000000000000003273656fe82e6eb179b0b24da4a8f7684c0b81650000000000000000000000003273656fe82e6eb179b0b24da4a8f7684c0b8165000000000000000000000000000000000000000000000000000000000000000200000000000000000000000000000000000000000000000000000000000000000000000000000000000000000000000000000000000000000000000000000000000000000000000000000000000000000000000000000000000000d18c2e280000000000000000000000000000000000000000000000000000000000000000000000000000000000000000000000000000000000000000000000000000000000000000000000000000000000000000000000000000000000000000000000000000000000000000000000000000000000000000000000000000000000696e9f1b000000000000000000000000000000000000000000000000000000000000000000000000000000000000000000000000000000000000000000000000000000004f524d994726d5a3564d61c42a9aa4b274b52e41097648705acab4d51694159a00000000000000000000000000000000000000000000000000000000000001e0000000000000000000000000000000000000000000000000000000000000000000000000000000000000000000000000000000000000000000000000",
          "blockHash": "0x70e3c9e295bbec9ab7706302a261216b51cbf317e810c19717ff89e63896afb8",
          "blockNumber": "0x2721a14",
          "blockTimestamp": "0x696e910b",
          "transactionHash": "0xa15f4b4cd5e81bcc0b10feb7474708b5f184bb244b10a4112a66a4a6efcfe599",
          "transactionIndex": "0x34",
          "logIndex": "0x1e4",
          "removed": false
        },
        {
          "address": "0x3b7c0e49c607d47f4711d8573312ea5b6480566d",
          "topics": [
            "0x817ea9627ae9e61afe62fc4830383a143b6effa688b1aa212104f734c79815f8",
            "0xa1cba696ebf314de8dc322ddcc451675230ed202511969730ae2ca5d2ba27ac7"
          ],
          "data": "0x0000000000000000000000003273656fe82e6eb179b0b24da4a8f7684c0b81650000000000000000000000000000000000000000000000000000000000000001",
          "blockHash": "0x70e3c9e295bbec9ab7706302a261216b51cbf317e810c19717ff89e63896afb8",
          "blockNumber": "0x2721a14",
          "blockTimestamp": "0x696e910b",
          "transactionHash": "0xa15f4b4cd5e81bcc0b10feb7474708b5f184bb244b10a4112a66a4a6efcfe599",
          "transactionIndex": "0x34",
          "logIndex": "0x1e5",
          "removed": false
        }
      ],
      "logsBloom": "0x20000000800000000000000000000000000000800000000000000000000000000000000000040000000000000000010000000000000000000000000000080020000000001000000010000000000000000000000000000000000000000000100001000000000000000080000004000000000000000000000000004000080000200000000000000000000000080000040000000000000001000800010000400040000000800000000000000000100000000000000000000400000000000000000000000000000000040041100000000000000000002000000040200000000000000100000000000000000000000000000400000000000000000000000000000000",
      "type": "0x2",
      "transactionHash": "0xa15f4b4cd5e81bcc0b10feb7474708b5f184bb244b10a4112a66a4a6efcfe599",
      "transactionIndex": "0x34",
      "blockHash": "0x70e3c9e295bbec9ab7706302a261216b51cbf317e810c19717ff89e63896afb8",
      "blockNumber": "0x2721a14",
      "gasUsed": "0x336e3",
      "effectiveGasPrice": "0x2f9efd",
      "blobGasUsed": "0x14b59",
      "from": "0x3273656fe82e6eb179b0b24da4a8f7684c0b8165",
      "to": "0x3b7c0e49c607d47f4711d8573312ea5b6480566d",
      "contractAddress": null,
      "daFootprintGasScalar": "0x145",
      "l1BaseFeeScalar": "0x8dd",
      "l1BlobBaseFee": "0x2c3c8b",
      "l1BlobBaseFeeScalar": "0x101c12",
      "l1Fee": "0x505e0cad",
      "l1GasPrice": "0x36d696d",
      "l1GasUsed": "0x105e"
    }
  ],
  "libraries": [],
  "pending": [],
  "returns": {},
  "timestamp": 1768853772085,
  "chain": 8453,
  "commit": "33743b4"
}