{
  "transactions": [
    {
      "hash": "0x46764d526e48c57d22c745e0f14e96c2f61cd9479baa3a97210e07754bc439ac",
      "transactionType": "CALL",
      "contractName": null,
      "contractAddress": "0xa7458040272226378397c3036eda862d60c3b307",
      "function": "depositRouter(((uint8,uint256,bytes32,uint256)[],(uint8,bytes32)[],bytes32,bytes32,bytes32,uint256,uint256,uint64,uint64),bytes,uint256,uint8,bytes)",
      "arguments": [
        "([(0, 8453, 0x0000000000000000000000000000000000000000000000000000000000000000, 1000000000000)], [(0, 0x0000000000000000000000003273656fe82e6eb179b0b24da4a8f7684c0b8165)], 0x0000000000000000000000003273656fe82e6eb179b0b24da4a8f7684c0b8165, 0x84e75c8576483b53128ed23c26158522388ddb0a5df8516c83887d522196f91f, 0x0000000000000000000000000000000000000000000000000000000000000000, 900000000000, 1, 1769002971, 1769006571)",
        "0x204945dcc2f0d82a8c06cea4cfd4aedcbc6899347c059e7fba6c5194cd8f937b6250528c7d79e844c58c3f72966b30c7c2ab0e2f75b0c65a797094435a45fdf51c",
        "0",
        "1",
        "0x00000000000000000000000000000000000000000000000000000000000000000000000000000000000000003273656fe82e6eb179b0b24da4a8f7684c0b81650000000000000000000000000000000000000000000000000000000000000000000000000000000000000000000000000000000000000000000000000000000000000000000000000000000000000000000000000000000000000000000000000000000000000000000000000000000000000000000000000000000000000000000000000000000000000000000000000000000000000000000000000000000000000000000000000000000000000000000000000000000000000000000000000000000000000000000000000000000000000000000000000000000000000000"
      ],
      "transaction": {
        "from": "0x3273656fe82e6eb179b0b24da4a8f7684c0b8165",
        "to": "0xa7458040272226378397c3036eda862d60c3b307",
        "gas": "0x46510",
        "value": "0xe8d4a51000",
        "input": "0x9d1f6adf00000000000000000000000000000000000000000000000000000000000000a000000000000000000000000000000000000000000000000000000000000002c0000000000000000000000000000000000000000000000000000000000000000000000000000000000000000000000000000000000000000000000000000000010000000000000000000000000000000000000000000000000000000000000340000000000000000000000000000000000000000000000000000000000000012000000000000000000000000000000000000000000000000000000000000001c00000000000000000000000003273656fe82e6eb179b0b24da4a8f7684c0b816584e75c8576483b53128ed23c26158522388ddb0a5df8516c83887d522196f91f0000000000000000000000000000000000000000000000000000000000000000000000000000000000000000000000000000000000000000000000d18c2e28000000000000000000000000000000000000000000000000000000000000000001000000000000000000000000000000000000000000000000000000006970d7db000000000000000000000000000000000000000000000000000000006970e5eb0000000000000000000000000000000000000000000000000000000000000001000000000000000000000000000000000000000000000000000000000000000000000000000000000000000000000000000000000000000000000000000021050000000000000000000000000000000000000000000000000000000000000000000000000000000000000000000000000000000000000000000000e8d4a51000000000000000000000000000000000000000000000000000000000000000000100000000000000000000000000000000000000000000000000000000000000000000000000000000000000003273656fe82e6eb179b0b24da4a8f7684c0b81650000000000000000000000000000000000000000000000000000000000000041204945dcc2f0d82a8c06cea4cfd4aedcbc6899347c059e7fba6c5194cd8f937b6250528c7d79e844c58c3f72966b30c7c2ab0e2f75b0c65a797094435a45fdf51c00000000000000000000000000000000000000000000000000000000000000000000000000000000000000000000000000000000000000000000000000012000000000000000000000000000000000000000000000000000000000000000000000000000000000000000003273656fe82e6eb179b0b24da4a8f7684c0b81650000000000000000000000000000000000000000000000000000000000000000000000000000000000000000000000000000000000000000000000000000000000000000000000000000000000000000000000000000000000000000000000000000000000000000000000000000000000000000000000000000000000000000000000000000000000000000000000000000000000000000000000000000000000000000000000000000000000000000000000000000000000000000000000000000000000000000000000000000000000000000000000000000000000000000",
        "nonce": "0x20",
        "chainId": "0x2105"
      },
      "additionalContracts": [],
      "isFixedGasLimit": false
    }
  ],
  "receipts": [
    {
      "status": "0x1",
      "cumulativeGasUsed": "0x128b791",
      "logs": [
        {
          "address": "0x2ba677a74505d30fb88c48a4ea27889e6c5e1c0f",
          "topics": [
            "0x861b7e5934820cd74f4245d936687b94e982c2fb38fafa2b70f128b16b5fdc3b",
            "0x7b5153ce55b0eb158337d090c15d4fdd42cf0fc98a95a1f4448154cc2322c3e5"
          ],
          "data": "0x",
          "blockHash": "0x24bd9625a6dc1717ef4cde4e57da530d13aafbacc9abf8f3b9ede3fbdb442967",
          "blockNumber": "0x2733d8b",
          "blockTimestamp": "0x6970d7f9",
          "transactionHash": "0x46764d526e48c57d22c745e0f14e96c2f61cd9479baa3a97210e07754bc439ac",
          "transactionIndex": "0x41",
          "logIndex": "0x197",
          "removed": false
        },
        {
          "address": "0xda95d2e1b54893d424da8959bcabeabbfc911884",
          "topics": [
            "0xe188a18138f4f3ddbaea4a8e8b9a7241e53aecf8f1c9cb7200371a199a7267e6"
          ],
          "data": "0x0000000000000000000000000000000000000000000000000000000000000000",
          "blockHash": "0x24bd9625a6dc1717ef4cde4e57da530d13aafbacc9abf8f3b9ede3fbdb442967",
          "blockNumber": "0x2733d8b",
          "blockTimestamp": "0x6970d7f9",
          "transactionHash": "0x46764d526e48c57d22c745e0f14e96c2f61cd9479baa3a97210e07754bc439ac",
          "transactionIndex": "0x41",
          "logIndex": "0x198",
          "removed": false
        },
        {
          "address": "0xc05fb021704d4709c8c058da691fdf4070574685",
          "topics": [
            "0x918554b6bd6e2895ce6553de5de0e1a69db5289aa0e4fe193a0dcd1f14347477"
          ],
          "data": "0x4f869adde2fa3aefadd178432ffa471096031de44bf8b78fd0d35b445d0b046e",
          "blockHash": "0x24bd9625a6dc1717ef4cde4e57da530d13aafbacc9abf8f3b9ede3fbdb442967",
          "blockNumber": "0x2733d8b",
          "blockTimestamp": "0x6970d7f9",
          "transactionHash": "0x46764d526e48c57d22c745e0f14e96c2f61cd9479baa3a97210e07754bc439ac",
          "transactionIndex": "0x41",
          "logIndex": "0x199",
          "removed": false
        },
        {
          "address": "0x337685fdab40d39bd02028545a4ffa7d287cc3e2",
          "topics": [
            "0xb8543d214cab9591941648db8d40126a163bfd0db4a865678320b921e1398043"
          ],
          "data": "0x000000000000000000000000c05fb021704d4709c8c058da691fdf407057468500000000000000000000000000000000000000000000000000000000000000400000000000000000000000000000000000000000000000000000000000000204ca5662b000000000000000000000000000000000000000000000000000000000000000000000000000000000000000003273656fe82e6eb179b0b24da4a8f7684c0b81650000000000000000000000003273656fe82e6eb179b0b24da4a8f7684c0b8165000000000000000000000000000000000000000000000000000000000000000200000000000000000000000000000000000000000000000000000000000000000000000000000000000000000000000000000000000000000000000000000000000000000000000000000000000000000000000000000000000000d18c2e2800000000000000000000000000000000000000000000000000000000000000000000000000000000000000000000000000000000000000000000000000000000000000000000000000000000000000000000000000000000000000000000000000000000000000000000000000000000000000000000000000000000006970e5eb00000000000000000000000000000000000000000000000000000000000000000000000000000000000000000000000000000000000000000000000000000000000000000000000000000000000000000000000000000000000000000000000000000000000000000000000000000000000000000000000000000000000001e0000000000000000000000000000000000000000000000000000000000000000000000000000000000000000000000000000000000000000000000000",
          "blockHash": "0x24bd9625a6dc1717ef4cde4e57da530d13aafbacc9abf8f3b9ede3fbdb442967",
          "blockNumber": "0x2733d8b",
          "blockTimestamp": "0x6970d7f9",
          "transactionHash": "0x46764d526e48c57d22c745e0f14e96c2f61cd9479baa3a97210e07754bc439ac",
          "transactionIndex": "0x41",
          "logIndex": "0x19a",
          "removed": false
        },
        {
          "address": "0xa7458040272226378397c3036eda862d60c3b307",
          "topics": [
            "0x817ea9627ae9e61afe62fc4830383a143b6effa688b1aa212104f734c79815f8",
            "0xf893b4fbca1a6b739ae2d760aaf87083b4daf2242cfeedc4dccd46d13d07978a"
          ],
          "data": "0x0000000000000000000000003273656fe82e6eb179b0b24da4a8f7684c0b81650000000000000000000000000000000000000000000000000000000000000001",
          "blockHash": "0x24bd9625a6dc1717ef4cde4e57da530d13aafbacc9abf8f3b9ede3fbdb442967",
          "blockNumber": "0x2733d8b",
          "blockTimestamp": "0x6970d7f9",
          "transactionHash": "0x46764d526e48c57d22c745e0f14e96c2f61cd9479baa3a97210e07754bc439ac",
          "transactionIndex": "0x41",
          "logIndex": "0x19b",
          "removed": false
        }
      ],
      "logsBloom": "0x00000000800000000000004000000000000000800000000000000000000000000000000000040000000000000000010000000000000000000000000000008000000000001000000010000000000000000000000000000000000000000000100001000000000000000080000004000000000000000000000000004040080100280000000000000000080000080000000000000000000001000000000000000000000000800000000000400000100000000000000000000400000000000000000000000000000002000041100000000011000004000000000000200000000000000100000000000000000000000000000400000000000000000000000000000000",
      "type": "0x2",
      "transactionHash": "0x46764d526e48c57d22c745e0f14e96c2f61cd9479baa3a97210e07754bc439ac",
      "transactionIndex": "0x41",
      "blockHash": "0x24bd9625a6dc1717ef4cde4e57da530d13aafbacc9abf8f3b9ede3fbdb442967",
      "blockNumber": "0x2733d8b",
      "gasUsed": "0x32e87",
      "effectiveGasPrice": "0x51c7f3",
      "blobGasUsed": "0x152f7",
      "from": "0x3273656fe82e6eb179b0b24da4a8f7684c0b8165",
      "to": "0xa7458040272226378397c3036eda862d60c3b307",
      "contractAddress": null,
      "daFootprintGasScalar": "0x145",
      "l1BaseFeeScalar": "0x8dd",
      "l1BlobBaseFee": "0x8c6d33",
      "l1BlobBaseFeeScalar": "0x101c12",
      "l1Fee": "0xf20c4847",
      "l1GasPrice": "0x8f2c2ab",
      "l1GasUsed": "0x10bc"
    }
  ],
  "libraries": [],
  "pending": [],
  "returns": {},
  "timestamp": 1769003002642,
  "chain": 8453,
  "commit": "c4f22f8"
}