{
  "transactions": [
    {
      "hash": null,
      "transactionType": "CALL",
      "contractName": null,
      "contractAddress": "0xa7458040272226378397c3036eda862d60c3b307",
      "function": "depositRouter(((uint8,uint256,bytes32,uint256)[],(uint8,bytes32)[],bytes32,bytes32,bytes32,uint256,uint256,uint64,uint64),bytes,uint256,uint8,bytes)",
      "arguments": [
        "([(0, 8453, 0x0000000000000000000000000000000000000000000000000000000000000000, 93700)], [(0, 0x0000000000000000000000003273656fe82e6eb179b0b24da4a8f7684c0b8165)], 0x000000000000000000000000d493066498ace409059fda4c1bcd2e73d8cffe01, 0x84e75c8576483b53128ed23c26158522388ddb0a5df8516c83887d522196f91f, 0x0d6f2c09ae4c558aefe47eb317323ff81ab23658ea8b5d7d81c372d7cffcff4f, 93700, 1, 1769003739, 1769007339)",
        "0x758f12c31e53af7ef21e66b2ffc71e8b79622a390a02f46b9901fb8418fcf4b53e5e6d45ff1d588136a2d036da9532d94b2e0e4e96284ebcda98e7e974dc2cbd1c",
        "0",
        "1",
        "0x00000000000000000000000000000000000000000000000000000000000000002c0bdd15dd0dfbf53751d0f1d61e26cfac7c3bd8c9446224c345afc074fb287e0000000000000000000000009b2a3b92b1d86938d3ed37b0519952c227ba6d09000000000000000000000000000000000000000000000000000000000007732a00000000000000000000000000000000000000000000000000000000000011c000000000000000000000000000000000000000000000000000000000000000000000000000000000000000000000000000000000000000000000000000000002565af35a7d12dffbd22969cf7c119a7e210c126e41f39532f80ef24fe785b6bb0000000000000000000000000000000000000000000000000000000000000001"
      ],
      "transaction": {
        "from": "0x3273656fe82e6eb179b0b24da4a8f7684c0b8165",
        "to": "0xa7458040272226378397c3036eda862d60c3b307",
        "value": "0x16e04",
        "input": "0x9d1f6adf00000000000000000000000000000000000000000000000000000000000000a000000000000000000000000000000000000000000000000000000000000002c0000000000000000000000000000000000000000000000000000000000000000000000000000000000000000000000000000000000000000000000000000000010000000000000000000000000000000000000000000000000000000000000340000000000000000000000000000000000000000000000000000000000000012000000000000000000000000000000000000000000000000000000000000001c0000000000000000000000000d493066498ace409059fda4c1bcd2e73d8cffe0184e75c8576483b53128ed23c26158522388ddb0a5df8516c83887d522196f91f0d6f2c09ae4c558aefe47eb317323ff81ab23658ea8b5d7d81c372d7cffcff4f0000000000000000000000000000000000000000000000000000000000016e040000000000000000000000000000000000000000000000000000000000000001000000000000000000000000000000000000000000000000000000006970dadb000000000000000000000000000000000000000000000000000000006970e8eb00000000000000000000000000000000000000000000000000000000000000010000000000000000000000000000000000000000000000000000000000000000000000000000000000000000000000000000000000000000000000000000210500000000000000000000000000000000000000000000000000000000000000000000000000000000000000000000000000000000000000000000000000016e04000000000000000000000000000000000000000000000000000000000000000100000000000000000000000000000000000000000000000000000000000000000000000000000000000000003273656fe82e6eb179b0b24da4a8f7684c0b81650000000000000000000000000000000000000000000000000000000000000041758f12c31e53af7ef21e66b2ffc71e8b79622a390a02f46b9901fb8418fcf4b53e5e6d45ff1d588136a2d036da9532d94b2e0e4e96284ebcda98e7e974dc2cbd1c00000000000000000000000000000000000000000000000000000000000000000000000000000000000000000000000000000000000000000000000000012000000000000000000000000000000000000000000000000000000000000000002c0bdd15dd0dfbf53751d0f1d61e26cfac7c3bd8c9446224c345afc074fb287e0000000000000000000000009b2a3b92b1d86938d3ed37b0519952c227ba6d09000000000000000000000000000000000000000000000000000000000007732a00000000000000000000000000000000000000000000000000000000000011c000000000000000000000000000000000000000000000000000000000000000000000000000000000000000000000000000000000000000000000000000000002565af35a7d12dffbd22969cf7c119a7e210c126e41f39532f80ef24fe785b6bb0000000000000000000000000000000000000000000000000000000000000001",
        "nonce": "0x21",
        "chainId": "0x2105"
      },
      "additionalContracts": [],
      "isFixedGasLimit": false
    }
  ],
  "receipts": [],
  "libraries": [],
  "pending": [],
  "returns": {},
  "timestamp": 1769003763048,
  "chain": 8453,
  "commit": "f5127f9"
}